:020000040000FA
:100000008A11FD2F00308A000408840A8207003418
:1000100045346A3465346D3470346C346F34003474
:100020000D340A34203448346F346C3469347334FA
:10003000203473346F3479342034743472346F3430
:0C0040006E34693463340D340A3400342B
:100C3A00831203138C1A222E232E252E0310262EFE
:100C4A0003140800F00083160313981C2D2E2E2E71
:100C5A00282E7008831203139900080083120313C5
:100C6A008C1E382E392E332E981C3C2E3D2E3F2EAC
:100C7A00181218161A0808000830831603138E0073
:100C8A009F010730831203139F008B0183160313FE
:100C9A008C01831203138C0117308316031381000E
:100CAA008501023086000800F300F101F2016C2E82
:100CBA007108730784008A1102208A118A11272673
:100CCA008A110130F1070318F20A0030F20771089D
:100CDA00730784008A1102208A11003A031D762EB6
:100CEA00772E5D2E08008A1141268A110030831260
:100CFA000313A9000030A8002530A7008030A60001
:100D0A008A11DA268A110B3083120313AE002630B9
:100D1A00AD005D30AC00AC0B902EAD0B902EAE0B3F
:100D2A00902E000009308A1159268A110630831242
:100D3A000313AE001330AD00AD30AC00AC0BA32EE4
:100D4A00AD0BA32EAE0BA32E000001308A1159263B
:100D5A008A11063083120313AE001330AD00AD3092
:100D6A00AC00AC0BB62EAD0BB62EAE0BB62E0000F9
:100D7A001C308A1159268A118A111D268A11031CD0
:100D8A00C72EC82EC12E8A1133268A118312031345
:100D9A00AC00AD012C08AF002D08B0002F088A1155
:100DAA0027268A11C12E8A110028831203132608C6
:100DBA00F9002708FA002808FB002908FC0004307B
:100DCA000310F90DFA0DFB0DFC0DFF3E031DE52E78
:100DDA007C08F3007B08F2007A08F1007908F00039
:100DEA000030F7003D30F6000930F5000030F4001D
:100DFA008A1160278A117008FF3E83120313AA0022
:100E0A0071080318013EFF3EAB0001302B0200308F
:100E1A0003192A02031C122F132F552F2608F90033
:100E2A002708FA002808FB002908FC0006300310EE
:100E3A00F90DFA0DFB0DFC0DFF3E031D1C2F7C085E
:100E4A00F3007B08F2007A08F1007908F00000301C
:100E5A00F7003D30F6000930F5000030F4008A1141
:100E6A0060278A117008FF3E83120313AA007108D3
:100E7A000318013EFF3EAB0001302B02003003197C
:100E8A002A02031C492F4A2F4E2FFF30AA00003096
:100E9A00AB002A08831603139900203098005B2FB1
:100EAA002A0883160313990024309800903083127D
:100EBA0003139800080083120313A101F31F662F7E
:100ECA00672F742FF009F109F209F309F00A0319DF
:100EDA00F10A0319F20A0319F30AA101A10AF71F79
:100EEA00772F782F872FF409F509F609F709F40AFD
:100EFA000319F50A0319F60A0319F70A0130F8006B
:100F0A007808A1060030A5000030A4000030A30034
:100F1A000030A20073087204710470040319962F3A
:100F2A00972FE42FA001A00AA72F0130F800031081
:100F3A00F00DF10DF20DF30DF80B9C2F0130F800B6
:100F4A007808A007F31FAA2FAB2F9A2F0130F800B9
:100F5A000310A20DA30DA40DA50DF80BAD2F730858
:100F6A007702031DC22F72087602031DC22F710871
:100F7A007502031DC22F70087402031CC52FC62FE9
:100F8A00D52F7008F4027108031C710FF50272085C
:100F9A00031C720FF6027308031C730FF702221464
:100FAA0001300310F30CF20CF10CF00CFF3E031DA0
:100FBA00D62F0130A002031DE32FE42FAB2F210807
:100FCA000319E82FE92FF42FA209A309A409A509F7
:100FDA00A20A0319A30A0319A40A0319A50A2508D0
:100FEA00F3002408F2002308F1002208F0000800A8
:060FFA0083018A11782E2C
:02400E00383F39
:00000001FF
